:020000040800F2
:1000000048BB00206D3F0008AB240108993F000861
:10001000993F0008993F0008993F00080000000040
:10002000000000000000000000000000C13D0008CA
:10003000993F0008000000006D3D00088D3B00085E
:10004000453F0008453F0008453F0008453F000880
:10005000453F0008453F0008453F0008453F000870
:10006000453F0008453F0008453F0008453F000860
:10007000453F0008453F0008453F0008453F000850
:10008000453F0008453F0008453F0008453F000840
:10009000453F0008453F0008453F0008453F000830
:1000A000453F0008453F0008453F0008453F000820
:1000B000453F0008453F0008453F0008453F000810
:1000C000453F0008453F0008453F0008453F000800
:1000D000453F0008453F0008453F0008453F0008F0
:1000E000453F0008453F0008453F0008453F0008E0
:1000F000453F0008453F0008453F0008453F0008D0
:10010000453F0008453F0008453F0008453F0008BF
:10011000453F0008453F0008453F0008453F0008AF
:10012000453F0008453F0008453F0008453F00089F
:10013000453F0008453F0008453F0008453F00088F
:10014000453F0008453F0008453F0008453F00087F
:10015000453F0008453F0008453F0008453F00086F
:10016000453F0008453F0008453F0008453F00085F
:10017000453F0008453F0008453F0008453F00084F
:10018000453F0008453F0008453F0008453F00083F
:10019000453F0008453F0008453F0008453F00082F
:0C01A000453F0008453F0008453F0008AF
:1001AC00FFFFFFFFFFFFFFFFFFFFFFFFFFFFFFFF53
:0401BC00FFFFFFFF43
:1001C00090F800F06DE9024520F007016FF0000C97
:1001D00010F0070491F820F040F049804FF000043F
:1001E0006FF00700D1E9002391F840F000F108001A
:1001F00082FA4CF2A4FA8CF283FA4CF3A2FA8CF352
:100200004BBBD1E9022382FA4CF200F10800A4FAB8
:100210008CF283FA4CF3A2FA8CF3E3B9D1E904230C
:1002200082FA4CF200F10800A4FA8CF283FA4CF343
:10023000A2FA8CF37BB9D1E9062301F1200182FAFD
:100240004CF200F10800A4FA8CF283FA4CF3A2FA03
:100250008CF3002BC6D0002A04BF04301A4612BA11
:10026000B2FA82F2FDE8024500EBD2007047D1E914
:10027000002304F00305C4F100004FEAC50514F0A3
:10028000040F91F840F00CFA05F562EA05021CBF74
:1002900063EA050362464FF00004A9E7000000008E
:1002A000A2EB0300704700BF02780B78012A28BF39
:1002B0009A42F5D16DE9044540EA0104CDE90267AF
:1002C0006FF0000C4FEA447212B380EA010414F09C
:1002D000070F6AD100F0070420F0070004F00305BF
:1002E00021F007014FEAC505F0E8042314F0040FDC
:1002F000F1E804670CFA05F462EA040266EA04060F
:100300000AD063EA0403624667EA0407664603E02C
:10031000F0E80423F1E8046782FA4CF582EA060467
:10032000A4FA8CF46CBB83FA4CF583EA0705A5FAB2
:100330008CF595B950E9022351E9026782FA4CF530
:1003400082EA0604A4FA8CF483FA4CF583EA0705E2
:10035000A5FA8CF52543DBD09CB92DBAB5FA85F406
:1003600024F0070427FA04F1DDE9026723FA04F315
:1003700003F0FF0001F0FF01FDE80445A0EB0100E0
:10038000704724BAB4FA84F424F0070426FA04F17E
:10039000DDE9026722FA04F202F0FF0001F0FF013A
:1003A000FDE80445A0EB0100704714F0030F3CD1B9
:1003B00010F0030428D150F8082B51F8083B82FABA
:1003C0004CF582EA0305A5FA8CF55DB950F8042CCA
:1003D00051F8043C82FA4CF582EA0305A5FA8CF543
:1003E000002DE8D02DBAB5FA85F424F0070423FADD
:1003F00004F122FA04F202F0FF0001F0FF01FDE82F
:100400000445A0EB010070474FEAC40420F003004C
:1004100050F8082B21F0030151F8083B0CFA04F4C2
:1004200062EA040263EA0403C9E710F003041AD085
:10043000A1EB040120F00300E40750F8042B06D0E0
:100440000FD28B785FFAA2F4E41A06D12BB1CB78E5
:100450005FFAB2F4E41A00D11BB920465DF8104BE4
:10046000704701F1040150F8042BCC0721F003017F
:1004700051F8043B48D824D222F07F4482FA4CF54C
:1004800094EA1325A5FA8CF50AD165B951F8043B15
:1004900084EA0204B4EB036F0ED150F8042BEBE7AF
:1004A0004FEA132355E035F07F454DD10878FDE83C
:1004B0000445C0F1000070474FEA126203F0FF03E9
:1004C00047E002EA1C4482FA4CF594EA1345A5FA87
:1004D0008CF50AD165B951F8043B84EA0204B4EB07
:1004E000034F0CD150F8042BEBE74FEA134330E0F5
:1004F00015EA1C4528D10B884FEA124229E04FEA41
:10050000124203EA1C4324E002F0FF0482FA4CF595
:1005100094EA1365A5FA8CF50AD165B951F8043B44
:1005200084EA0204B4EB032F09D150F8042BEBE763
:100530004FEA13630DE015F0FF0F05D10B684FEA8A
:10054000122223F07F4304E04FF00000FDE8044551
:10055000704712BA1BBA82FA4CF482EA0304A4FA76
:100560008CF5B5FA85F402FA04F203FA04F34FEAC3
:100570001260FDE80445A0EB136070470000000026
:1005800001F0FF01102A2BDB10F0070F08D010F844
:10059000013B013A8B422DD010F0070F42B3F6D148
:1005A000F0B441EA012141EA014122F007047FF061
:1005B00000070023F0E80256083C85EA010586EAB8
:1005C000010685FA47F5A3FA87F586FA47F6A5FAF4
:1005D00087F68EB9EED1F0BC01F0FF0102F0070200
:1005E00032B110F8013B013A83EA010313B1F8D1AB
:1005F0000020704701387047002D06BF354603388C
:10060000073815F0010F07D1013015F4807F02BFC4
:10061000013015F4C03F0130F0BC0138704700BF15
:1006200081F0004102E000BF83F0004330B54FEAA3
:1006300041044FEA430594EA050F08BF90EA020F10
:100640001FBF54EA000C55EA020C7FEA645C7FEAA3
:10065000655C00F0E2804FEA5454D4EB5555B8BFC6
:100660006D420CDD2C4480EA020281EA030382EA37
:10067000000083EA010180EA020281EA0303362DC9
:1006800088BF30BD11F0004F4FEA01314FF4801C9C
:100690004CEA113102D0404261EB410113F0004FAE
:1006A0004FEA03334CEA133302D0524263EB430365
:1006B00094EA050F00F0A780A4F10104D5F1200E03
:1006C0000DDB02FA0EFC22FA05F2801841F100015E
:1006D00003FA0EF2801843FA05F359410EE0A5F132
:1006E00020050EF1200E012A03FA0EFC28BF4CF063
:1006F000020C43FA05F3C01851EBE37101F0004519
:1007000007D54FF0000EDCF1000C7EEB00006EEB25
:100710000101B1F5801F1BD3B1F5001F0CD34908AF
:100720005FEA30004FEA3C0C04F101044FEA445206
:1007300012F5800F80F09A80BCF1004F08BF5FEA8D
:10074000500C50F1000041EB045141EA050130BD6D
:100750005FEA4C0C404141EB0101013C28BFB1F57F
:10076000801FE9D291F0000F04BF01460020B1FACA
:1007700081F308BF2033A3F10B03B3F120020CDA9D
:100780000C3208DD02F1140CC2F10C0201FA0CF07B
:1007900021FA02F10CE002F11402D8BFC2F1200CE0
:1007A00001FA02F120FA0CFCDCBF41EA0C01904096
:1007B000E41AA2BF01EB0451294330BD6FEA0404DF
:1007C0001F3C1CDA0C340EDC04F11404C4F12002CA
:1007D00020FA04F001FA02F340EA030021FA04F3DC
:1007E00045EA030130BDC4F10C04C4F1200220FA33
:1007F00002F001FA04F340EA0300294630BD21FA71
:1008000004F0294630BD94F0000F83F4801306BF36
:1008100081F480110134013D4EE77FEA645C18BF2A
:100820007FEA655C29D094EA050F08BF90EA020FC1
:1008300005D054EA000C04BF1946104630BD91EAB9
:10084000030F1EBF0021002030BD5FEA545C05D1BC
:100850004000494128BF41F0004130BD14F58004FB
:100860003CBF01F5801130BD01F0004545F0FE416F
:1008700041F470014FF0000030BD7FEA645C1ABFA4
:10088000194610467FEA655C1CBF0B46024650EADB
:10089000013406BF52EA033591EA030F41F4002107
:1008A00030BD00BF90F0000F04BF0021704730B58D
:1008B0004FF4806404F132044FF000054FF0000162
:1008C00050E700BF90F0000F04BF0021704730B523
:1008D0004FF4806404F1320410F0004548BF4042F8
:1008E0004FF000013EE700BF42004FEAE2014FEA4D
:1008F00031014FEA02701FBF12F07F4393F07F4F28
:1009000081F06051704732F07F4208BF704793F02A
:100910007F4F04BF41F40021704730B54FF460743D
:1009200001F0004521F000411CE700BF50EA010240
:1009300008BF704730B54FF000050AE050EA0102E9
:1009400008BF704730B511F0004502D5404261EB59
:1009500041014FF4806404F132045FEA915C3FF49A
:10096000D8AE4FF003025FEADC0C18BF03325FEA37
:10097000DC0C18BF033202EBDC02C2F1200300FAE8
:1009800003FC20FA02F001FA03FE40EA0E0021FA0D
:1009900002F11444BDE600BF70B54FF0FF0C4CF4FB
:1009A000E06C1CEA11541DBF1CEA135594EA0C0FAD
:1009B00095EA0C0F00F0DEF82C4481EA030621EAE8
:1009C0004C5123EA4C5350EA013518BF52EA033523
:1009D00041F4801143F4801338D0A0FB02CE4FF0D5
:1009E0000005E1FB02E506F00042E0FB03E54FF005
:1009F0000006E1FB03569CF0000F18BF4EF0010EFD
:100A0000A4F1FF04B6F5007F64F5407404D25FEAF8
:100A10004E0E6D4146EB060642EAC62141EA5551AB
:100A20004FEAC52040EA5E504FEACE2EB4F1FD0CED
:100A300088BFBCF5E06F1ED8BEF1004F08BF5FEA6B
:100A4000500E50F1000041EB045170BD06F000461D
:100A500046EA010140EA020081EA0301B4EB5C04CA
:100A6000C2BFD4EB0C0541EA045170BD41F48011C2
:100A70004FF0000E013C00F3AB8014F1360FDEBFE7
:100A8000002001F0004170BDC4F10004203C35DAC3
:100A90000C341BDC04F11404C4F1200500FA05F346
:100AA00020FA04F001FA05F240EA020001F00042E7
:100AB00021F0004110EBD37021FA04F642EB06015D
:100AC0005EEA430E08BF20EAD37070BDC4F10C0487
:100AD000C4F1200500FA04F320FA05F001FA04F24B
:100AE00040EA020001F0004110EBD37041F1000137
:100AF0005EEA430E08BF20EAD37070BDC4F1200542
:100B000000FA05F24EEA020E20FA04F301FA05F2A9
:100B100043EA020321FA04F001F0004121FA04F251
:100B200020EA020000EBD3705EEA430E08BF20EA21
:100B3000D37070BD94F0000F0FD101F0004640005B
:100B400041EB010111F4801F08BF013CF7D041EADD
:100B5000060195F0000F18BF704703F000465200E1
:100B600043EB030313F4801F08BF013DF7D043EAB2
:100B70000603704794EA0C0F0CEA135518BF95EA68
:100B80000C0F0CD050EA410618BF52EA4306D1D1EF
:100B900081EA030101F000414FF0000070BD50EA0E
:100BA000410606BF1046194652EA430619D094EA98
:100BB0000C0F02D150EA013613D195EA0C0F05D182
:100BC00052EA03361CBF104619460AD181EA0301D6
:100BD00001F0004141F0FE4141F470014FF000008E
:100BE00070BD41F0FE4141F4780170BD70B54FF029
:100BF000FF0C4CF4E06C1CEA11541DBF1CEA1355A9
:100C000094EA0C0F95EA0C0F00F0A7F8A4EB05048A
:100C100081EA030E52EA03354FEA013100F0888081
:100C20004FEA03334FF0805545EA131343EA12634A
:100C30004FEA022245EA111545EA10654FEA0026FF
:100C40000EF000419D4208BF964244F1FD0404F5B8
:100C5000407402D25B084FEA3202B61A65EB030514
:100C60005B084FEA32024FF480104FF4002CB6EBD1
:100C7000020E75EB030E22BFB61A754640EA0C0051
:100C80005B084FEA3202B6EB020E75EB030E22BF91
:100C9000B61A754640EA5C005B084FEA3202B6EBD2
:100CA000020E75EB030E22BFB61A754640EA9C0091
:100CB0005B084FEA3202B6EB020E75EB030E22BF61
:100CC000B61A754640EADC0055EA060E18D04FEA1F
:100CD000051545EA16754FEA06164FEAC30343EABF
:100CE00052734FEAC2025FEA1C1CC0D111F4801F8C
:100CF0000BD141EA00014FF000004FF0004CB6E785
:100D000011F4801F04BF01430020B4F1FD0C88BF23
:100D1000BCF5E06F3FF6AFAEB5EB030C04BFB6EB2E
:100D2000020C5FEA500C50F1000041EB045170BD21
:100D30000EF0004E4EEA113114EB5C04C2BFD4EB4E
:100D40000C0541EA045170BD41F480114FF0000ED2
:100D5000013C90E645EA060E8DE60CEA135594EA4E
:100D60000C0F08BF95EA0C0F3FF43BAF94EA0C0F51
:100D70000AD150EA01347FF434AF95EA0C0F7FF4C6
:100D800025AF104619462CE795EA0C0F06D152EA1A
:100D900003353FF4FDAE1046194622E750EA4106FE
:100DA00018BF52EA43067FF4C5AE50EA41047FF40F
:100DB0000DAF52EA43057FF4EBAE12E780F000403E
:100DC00002E000BF81F0004142001FBF5FEA410323
:100DD00092EA030F7FEA226C7FEA236C6AD04FEA23
:100DE0001262D2EB1363C1BFD21841404840414068
:100DF000B8BF5B42192B88BF704710F0004F40F41A
:100E0000000020F07F4018BF404211F0004F41F435
:100E1000000121F07F4118BF494292EA030F3FD001
:100E2000A2F1010241FA03FC10EB0C00C3F1200314
:100E300001FA03F100F0004302D5494260EB4000A3
:100E4000B0F5000F13D3B0F1807F06D340084FEA0E
:100E5000310102F10102FE2A51D2B1F1004F40EB03
:100E6000C25008BF20F0010040EA0300704749006B
:100E700040EB0000013A28BFB0F5000FEDD2B0FA08
:100E800080FCACF1080CB2EB0C0200FA0CF0AABF2B
:100E900000EBC25052421843BCBFD04018437047C9
:100EA00092F0000F81F4000106BF80F400000132CF
:100EB000013BB5E74FEA41037FEA226C18BF7FEAA6
:100EC000236C21D092EA030F04D092F0000F08BFE8
:100ED0000846704790EA010F1CBF0020704712F0CF
:100EE0007F4F04D1400028BF40F00040704712F10E
:100EF00000723CBF00F50000704700F0004343F073
:100F0000FE4040F4000070477FEA226216BF0846A8
:100F10007FEA23630146420206BF5FEA412390EA6B
:100F2000010F40F4800070474FF0000304E000BF61
:100F300010F0004348BF40425FEA000C08BF704712
:100F400043F0964301464FF000001CE050EA0102D6
:100F500008BF70474FF000030AE000BF50EA0102EB
:100F600008BF704711F0004302D5404261EB4101D8
:100F70005FEA010C02BF84460146002043F0B643FD
:100F800008BFA3F18053A3F50003BCFA8CF2083A22
:100F9000A3EBC25310DB01FA02FC634400FA02FC2B
:100FA000C2F12002BCF1004F20FA02F243EB020032
:100FB00008BF20F00100704702F1200201FA02FC94
:100FC000C2F1200250EA4C0021FA02F243EB020087
:100FD00008BF20EADC7070474FF0FF0C1CEAD052CB
:100FE0001EBF1CEAD15392EA0C0F93EA0C0F6FD08C
:100FF0001A4480EA010C400218BF5FEA41211ED06A
:101000004FF0006343EA501043EA5111A0FB013155
:101010000CF00040B1F5000F3EBF490041EAD3712A
:101020005B0040EA010062F17F02FD2A1DD8B3F1A6
:10103000004F40EBC25008BF20F00100704790F015
:10104000000F0CF0004C08BF49024CEA502040EA67
:1010500051207F3AC2BFD2F1FF0340EAC25070472D
:1010600040F400004FF00003013A5DDC12F1190F6B
:10107000DCBF00F000407047C2F10002410021FADD
:1010800002F1C2F1200200FA02FC5FEA310040F1F5
:10109000000053EA4C0308BF20EADC70704792F06E
:1010A000000F00F0004C02BF400010F4000F013AA6
:1010B000F9D040EA0C0093F0000F01F0004C02BFA1
:1010C000490011F4000F013BF9D041EA0C018FE710
:1010D0000CEAD15392EA0C0F18BF93EA0C0F0AD016
:1010E00030F0004C18BF31F0004CD8D180EA01003C
:1010F00000F00040704790F0000F17BF90F0004FD5
:10110000084691F0000F91F0004F14D092EA0C0FB6
:1011100001D142020FD193EA0C0F03D14B0218BF49
:10112000084608D180EA010000F0004040F0FE408F
:1011300040F40000704740F0FE4040F4400070472B
:101140004FF0FF0C1CEAD0521EBF1CEAD15392EAAA
:101150000C0F93EA0C0F69D0A2EB030280EA010C9A
:1011600049024FEA402037D04FF0805343EA111133
:1011700043EA10130CF000408B4238BF5B0042F191
:101180007D024FF4000C8B4224BF5B1A40EA0C0036
:10119000B3EB510F24BFA3EB510340EA5C00B3EB68
:1011A000910F24BFA3EB910340EA9C00B3EBD10F56
:1011B00024BFA3EBD10340EADC001B0118BF5FEAA8
:1011C0001C1CE0D1FD2A3FF650AF8B4240EBC250D1
:1011D00008BF20F0010070470CF0004C4CEA502092
:1011E0007F32C2BFD2F1FF0340EAC250704740F4E1
:1011F00000004FF00003013A37E792F0000F00F0D3
:10120000004C02BF400010F4000F013AF9D040EA50
:101210000C0093F0000F01F0004C02BF490011F4E4
:10122000000F013BF9D041EA0C0195E70CEAD153DC
:1012300092EA0C0F08D142027FF47DAF93EA0C0FC3
:101240007FF470AF084676E793EA0C0F04D14B02A7
:101250003FF44CAF08466EE730F0004C18BF31F059
:10126000004CCAD130F000427FF45CAF31F0004353
:101270007FF43CAF5FE700BF7BB972B90029BEBF06
:1012800000204FF0004106E008BF00281CBF6FF0AF
:1012900000414FF0FF3000F0D9B9ADF1080C6DE915
:1012A00004CE002909DB002B1ADB00F06DF8DDF815
:1012B00004E0DDE9022304B07047404261EB4101E4
:1012C000002B1BDB00F060F8DDF804E0DDE9022311
:1012D00004B0404261EB4101524263EB430370476B
:1012E000524263EB430300F04FF8DDF804E0DDE920
:1012F000022304B0404261EB41017047524263EB6C
:10130000430300F041F8DDF804E0DDE9022304B016
:10131000524263EB4303704753B94AB9002908BFEF
:1013200000281CBF4FF0FF314FF0FF3000F08EB9A6
:10133000ADF1080C6DE904CE00F026F8DDF804E00C
:10134000DDE9022304B07047D0B5FFF7CDFA0C4BAE
:10135000002206460F46FFF71FFB00F001FA044685
:10136000FFF7A0FA074B0022FFF716FB02460B46D9
:1013700030463946FFF758F900F0F2F92146D0BD62
:101380000000F03D0000F0412DE9F047089D0E46B9
:1013900004468C46002B40F081808A42174645D98E
:1013A000B2FA82F24AB1C2F1200106FA02F320FA3F
:1013B00001F1974041EA030C94404FEA174E230C89
:1013C000BCFBFEF6B9B20EFB16CC43EA0C4306FB9F
:1013D00001F0984209D9FB1806F1FF3C80F0158115
:1013E000984240F21281023E3B441B1AA4B2B3FB66
:1013F000FEF00EFB103344EA034400FB01F1A1426E
:1014000009D93C1900F1FF3380F00181A14240F27B
:10141000FE8002383C44641A40EA064000211DB1B7
:10142000D4400023C5E90043BDE8F08702B9FFDEE0
:10143000B2FA82F2002A4FD1CB1B4FEA174E1FFAA5
:1014400087F80121B3FBFEFC260C0EFB1C3346EA99
:10145000034608FB0CF3B34207D9BE190CF1FF3069
:1014600002D2B34200F2EB808446F61AA3B2B6FB76
:10147000FEF00EFB106643EA064408FB00F8A045A8
:1014800007D93C1900F1FF3302D2A04500F2D28007
:101490001846A4EB080440EA0C40C0E78B4208D988
:1014A000002D00F0AF800021C5E900060846BDE828
:1014B000F087B3FA83F1002949D1B34202D38242C3
:1014C00000F2BB80841A66EB030301209C46002DCA
:1014D000AAD0C5E9004CA7E7C2F120039740D84045
:1014E0009140DE404FEA174E08434FEA104CB6FBDE
:1014F000FEF11FFA87F80EFB11664CEA064601FB67
:1015000008F3B34204FA02F409D9BE1901F1FF3C11
:1015100080F08E80B34240F28B8002393E44F31A51
:1015200086B2B3FBFEF00EFB103346EA034600FB27
:1015300008F3B34207D9BE1900F1FF3C74D2B3429D
:1015400072D902383E44F31A40EA01417AE7C1F108
:10155000200703FA01F422FA07F31C4320FA07F9E3
:1015600006FA01F34FEA144CFE4049EA03094FEA38
:101570001943B6FBFCFE1FFA84F80CFB1E6643EA17
:1015800006460EFB08FAB24502FA01F200FA01F330
:1015900008D9A6190EF1FF3048D2B24546D9AEF1AE
:1015A000020E2644A6EB0A061FFA89F9B6FBFCF0E8
:1015B0000CFB106649EA064600FB08F8B04507D95F
:1015C000A61900F1FF3C2DD2B0452BD90238264494
:1015D00040EA0E40A6EB0806A0FB02894E45C44631
:1015E000CE4618D315D075B3B3EB0C0266EB0E06DE
:1015F00006FA07F722FA01F3CE401F43C5E9007649
:10160000002111E7294628460EE76646EDE6184612
:1016100001E74345E7D2B8EB020C69EB040401385B
:10162000A646E0E76046D3E760468CE78646B9E722
:10163000614674E702383C442BE7084647E7ACF1C3
:10164000020C3E4411E72946EEE600BF704700BF9A
:101650004FF0FF3C06E000BF4FF0010C02E000BF7E
:101660004FF0010C4DF804CD4FEA410C7FEA6C5C61
:101670004FEA430C18BF7FEA6C5C1BD001B050EA04
:10168000410C0CBF52EA430C91EA030F02BF90EAEF
:10169000020F0020704710F1000F91EA030F58BFAE
:1016A000994208BF90422CBFD8176FEAE37040F010
:1016B000010070474FEA410C7FEA6C5C02D150EAAE
:1016C000013C07D14FEA430C7FEA6C5CD6D152EA69
:1016D000033CD3D05DF8040B704700BF844610462E
:1016E00062468C461946634600E000BF01B5FFF72D
:1016F000B7FF002848BF10F1000F01BD4DF808EDFD
:10170000FFF7F4FF0CBF012000205DF808FB00BFCD
:101710004DF808EDFFF7EAFF34BF012000205DF827
:1017200008FB00BF4DF808EDFFF7E0FF94BF012074
:1017300000205DF808FB00BF4DF808EDFFF7CEFF75
:1017400094BF012000205DF808FB00BF4DF808EDB4
:10175000FFF7C4FF34BF012000205DF808FB00BF85
:101760004A0011D212F5001211D20DD56FF4787320
:10177000B3EB62520ED44FEAC12343F0004343EA75
:10178000505323FA02F070474FF00000704750EAC0
:10179000013002D14FF0FF3070474FF0000070472A
:1017A000844641EA000313F003036DD1403A41D36C
:1017B00051F8043B40F8043B51F8043B40F8043B2B
:1017C00051F8043B40F8043B51F8043B40F8043B1B
:1017D00051F8043B40F8043B51F8043B40F8043B0B
:1017E00051F8043B40F8043B51F8043B40F8043BFB
:1017F00051F8043B40F8043B51F8043B40F8043BEB
:1018000051F8043B40F8043B51F8043B40F8043BDA
:1018100051F8043B40F8043B51F8043B40F8043BCA
:1018200051F8043B40F8043B51F8043B40F8043BBA
:10183000403ABDD2303211D351F8043B40F8043B5A
:1018400051F8043B40F8043B51F8043B40F8043B9A
:1018500051F8043B40F8043B103AEDD20C3205D36A
:1018600051F8043B40F8043B043AF9D2043208D062
:10187000D2071CBF11F8013B00F8013B01D30B88D4
:1018800003806046704700BF082A13D38B078DD0B2
:1018900010F003038AD0C3F10403D21ADB071CBF84
:1018A00011F8013B00F8013B80D331F8023B20F8EE
:1018B000023B7BE7043AD9D3013A11F8013B00F827
:1018C000013BF9D20B7803704B7843708B788370AF
:1018D000604670474FEA410C7FEA6C5C02D150EAE7
:1018E000013C0AD14FEA430C7FEA6C5C02D152EA18
:1018F000033C02D14FF0000070474FF001007047E9
:101900004FEA410212F5001215D211D56FF4787327
:10191000B3EB625212D94FEAC12343F0004343EACA
:10192000505311F0004F23FA02F018BF40427047A5
:101930004FF00000704750EA013005D111F000402F
:1019400008BF6FF0004070474FF00000704700BFC5
:10195000D0B5E4B006A805F02FFA0022114606AB78
:1019600032A804F0FFFF024628B154214E480AF085
:1019700087FA64B0D0BD4D4A4D4932AB04A805F09A
:1019800081F8024608B15821F0E711F083FD494B78
:10199000024604A9484805F0C5F8024608B15B2193
:1019A000E4E711F077FD454B024604A9444805F0F1
:1019B00001F9024608B15E21D8E711F06BFD3D4BFD
:1019C000024604A93F4805F03FF9024608B16121EB
:1019D000CCE711F05FFD394B024604A93A4805F007
:1019E00033F9024608B16421C0E7384B009332A9AD
:1019F00029A3D3E9002303A805F070F9024608B132
:101A00006921B3E7032206AB34A944A800F0BCF86F
:101A1000024608B16E21A9E703A944A804F09CFB83
:101A2000024608B16F21A1E7294A0090294B2549B8
:101A300044A804F03FFB024608B1702196E7264C0B
:101A40002149002300932246244B44A804F032FB92
:101A5000024608B1712189E7214A0BAB936032231A
:101A600013611B4A236118A91361916025AAA26022
:101A70000AF038FA0AA7D7E900671A4B1A4C18601F
:101A800032463B4644A804F0ADFB204610F027FD4B
:101A9000F6E700BFAFF30080009435770000000048
:101AA00000E1F505000000004BBF01080DD0010862
:101AB00074BF010882BF0108583E002091BF010891
:101AC000643E00205C3E0020683E00207D3500081A
:101AD0001C3E002015350008303E00204935000826
:101AE000443E0020183E0020A086010000000000B7
:101AF00001282DE9F8430E4609D0042834D010F00F
:101B0000ECFC162303604FF0FF30BDE8F8831A4B5E
:101B1000D3E900459F6811F060F8184BA0FB0389DA
:101B200003FB0199404612A3D3E900234946FFF77E
:101B3000F3FB241845EBE075C6E900450CA3D3E997
:101B4000002340464946FFF7E7FB0D4B3A449A42D3
:101B5000B26007D9611C45F10003C6E90013094BC7
:101B60001344B3600020D0E7002700240025D2E70B
:101B700000CA9A3B00000000C00E0020A0860100B1
:101B8000FFC99A3B003665C42DE9F0430C468FB07F
:101B900090469946064618B90B200FB0BDE8F08371
:101BA0000029F9D0184611F0DEF80028F4D0B8F179
:101BB000000FF1D03046002704F072FA3460684616
:101BC000C6F80880F7606C4608F006FA0FCC06F1FC
:101BD00014050FC50FCC0FC50FCC0FC523682B60A4
:101BE00016A3D3E900233825C6E91823D9F8101025
:101BF000D9F80030C6F8109005FB08F098477060DF
:101C0000A8B17068414605FB0700013711F086F85E
:101C1000B845F6D106F1480011F076F80021064BE0
:101C200033677167304611F061F80846B5E70A205E
:101C3000B3E700BFAFF30080C92C010800CA9A3B8C
:101C400000000000000000002DE9FF470D46164689
:101C5000044678B371B31AB9002004B0BDE8F08728
:101C6000D0E9000115F0ECFC16A3D3E9002382466D
:101C70008946FFF751FB13A3D3E9002380460F46A3
:101C800050464946FFF748FBD4E90001CDE902235D
:101C90000028094A094B71F10001A8BF1346CDE99C
:101CA0000087074A3146284611F0EFF80028D3DABA
:101CB0000220D2E70B20D0E70DD00108D4D10108D3
:101CC000D6D1010800CA9A3B0000000000000000C5
:101CD0002DE9F04F90468FB099460446002800F059
:101CE000658213F0B6FC0590002800F061826368FD
:101CF0005BB9E3684BB963693BB9E3692BB9636AC4
:101D00001BB9E36A002B00F05682B8F1010F79F19C
:101D100000034FF00003B9BF4FF0FF3A6FF0004BE4
:101D2000C246CB46002600270693216B00230A6C8F
:101D30009F4208BF9642C0F0B28058EA090340F0C3
:101D4000ED80CDE90A89CDE90C890AADA24B059356
:101D50001A7822B911F062F808B105F005F99F4828
:101D60000A2105F047FB30B12DB99D4B9B4A9D4898
:101D70000A2105F069FB059B1B7823B911F04EF889
:101D800008B105F0F1F895480A2105F033FB70B170
:101D90006DB1DDE90C23CDE90223DDE90A23924888
:101DA000CDE900230A21914B8C4A05F04DFB059BA0
:101DB0001B7823B911F032F808B105F0D5F887483F
:101DC0000A2105F017FB60B1894A0699894B8A48B8
:101DD000002908BF13460093804A884B0A2105F06A
:101DE00033FB206B0295C36B019300F13403009326
:101DF00000F1280200F11C0300F11001043000F092
:101E0000DFF9764FDFF8F881DFF8F89107900026C8
:101E1000236B1B6CB34200F2A680079B33F00205D4
:101E200040F0CC816D4FDFF8E091DFF8E0A12E4665
:101E30006368B34200F2FC80684FDFF8D491DFF8AA
:101E4000D4A10026E368B34200F21881634FDFF8A3
:101E5000C891DFF8C8A10026E369B34200F23481DB
:101E60005E4FDFF8BC91DFF8BCA10026636AB34285
:101E700000F25081594FDFF8B091DFF8B0A1002691
:101E8000E36AB34200F26C81079B022B03D1069BED
:101E9000002B08BF022528460FB0BDE8F08F22694D
:101EA000B300D258F2B1E2684869324450F8225087
:101EB00025B10A6940F8225001320A614FF0000250
:101EC0008DF8272022690793D0580DF1270113F0D0
:101ED00084FB05460028DED19DF827102269079B68
:101EE00021B1D050013647F100071EE74FF0FF3017
:101EF0006FF00041CDE90A01D0580AA913F030FB78
:101F000005460028C7D1DDE90A23524573EB0B01D2
:101F1000BFBF9B46059B06939246E3E7B8F1010FCE
:101F200079F1000301DA069BDBB15646002E7BF106
:101F30000003B8BF00265F46B8BF002724A3D3E93B
:101F4000002330463946FFF797F921A3D3E9002350
:101F5000CDE90A0130463946FFF78EF9CDE90C2369
:101F6000F3E6069DF2E6236953F826004FEA860A57
:101F700008B901364CE700230DF127018DF8273011
:101F800013F00BFB0546002885D1059B1B7823B970
:101F900010F044FF08B104F0E7FF0A21384605F0CD
:101FA00029FA68B19DF8273023B92369002243F844
:101FB0000A20DEE743463A460A21484605F044FA3D
:101FC0009DF82730002BD4D1EFE700BFAFF300809E
:101FD00000CA9A3B000000001A46002072C00108A7
:101FE0009CE10108B0070020BC070020B4E1010813
:101FF000C3D60108BED60108C8070020D9E10108F0
:102000000EE20108D407002029E20108E0070020C1
:102010004BE20108EC07002070E20108F8070020FD
:102020008CE2010804080020A9E201081008002041
:10203000236B9B6853F82680059B1B784FEA860B21
:1020400023B910F0EBFE08B104F08EFF0A213846E8
:1020500005F0D0F950B1B8F1000F0AD04B463A461E
:102060000A21504605F0F0F90136E1E6B8F1000F1B
:10207000FAD12368002243F80B20F5E7236B5B6954
:1020800053F82680059B1B784FEA860B23B910F086
:10209000C5FE08B104F068FF0A21384605F0AAF928
:1020A00050B1B8F1000F0AD04B463A460A215046CB
:1020B00005F0CAF90136C5E6B8F1000FFAD1A368F8
:1020C000002243F80B20F5E7236B1B6A53F82680A8
:1020D000059B1B784FEA860B23B910F09FFE08B1D1
:1020E00004F042FF0A21384605F084F950B1B8F1F6
:1020F000000F0AD04B463A460A21504605F0A4F993
:102100000136A9E6B8F1000FFAD1A369002243F81D
:102110000B20F5E7236BDB6A53F82680059B1B78C1
:102120004FEA860B23B910F079FE08B104F01CFFCA
:102130000A21384605F05EF950B1B8F1000F0AD017
:102140004B463A460A21504605F07EF901368DE6A7
:10215000B8F1000FFAD1236A002243F80B20F5E70B
:10216000236B9B6B53F82680059B1B784FEA860BED
:1021700023B910F053FE08B104F0F6FE0A213846E8
:1021800005F038F950B1B8F1000F0AD04B463A4685
:102190000A21504605F058F9013671E6B8F1000FF2
:1021A000FAD1A36A002243F80B20F5E70B2572E66B
:1021B0004FF461756FE640F285356CE601256AE6FD
:1021C0002DE9F74FDDF838C08246894690469B4698
:1021D000BCF1000F2BD0DCE900235DA1D1E90001A7
:1021E000994208BF904268D34FF47A71A2FB01452F
:1021F00001FB0355544A0023DCE90201FFF78CF888
:102200000B46E94302468B426FEA040008BF824254
:102210004FF000016FF0004006D2A61845EB03070F
:10222000B94208BFB04206D206460F4603E04FF05F
:10223000FF364FF0FF37454B1C6800212246CBB2DA
:102240000131002A3DD1394630460193FEF77EFE2A
:10225000019B05461846FEF767FE01462846FEF735
:102260006FFFFFF771F805466CBBB8F1000F3FD068
:10227000D8F800002346A0422DD1BBF1000F04D0B6
:10228000DBF800400022944234D1BAF1000F04D0B0
:10229000DAF800400022944239D1B9F1000F05D09C
:1022A0000022D9F80050164695423DD1002B0CBFB4
:1022B0000220002003B0BDE8F08F6FF00046002739
:1022C000B9E79268BBE7E068294600F5347011F081
:1022D000F4FFA468C8E7D8F8041051F8242092F855
:1022E0005A2812B941F824201A4601341346C2E78D
:1022F0004346C2E7DBF8040050F8221091F84E186C
:1023000011B940F82210194601320B46BBE7DAF842
:10231000040050F8221091F8421811B940F8221028
:10232000194601320B46B6E7D9F8044054F82200AA
:10233000017819B944F822100132B5E706700B464E
:10234000FAE700BFAFF3008040420F006C4100206D
:10235000EEA7C64B378941002DE9B043B0B002AFBC
:10236000F860C7E900230023BB66D7E90023C7E96B
:102370000823FB681B6C002B15D0FB681B6CFA68EC
:10238000526C5A60FB685A6CFB681B6C012101FAA5
:1023900002F29A60FB681B6C1946F86816F068FF39
:1023A000FB6800221A647B6A002B08DAD7F8DC305D
:1023B00001221A607B6A23F000437B6203E0D7F8B6
:1023C000DC3000221A607A6AAB4B1340AA4A93426F
:1023D00024D1D7F8D83042F20F721A603B6A002B32
:1023E00006D17B6AC3F31303002B01D1A34B00E09A
:1023F000A34B7B65D7F8E030002B0CD07B6D03330B
:102400001B78002B02D07B6D083301E07B6D03331A
:10241000D7F8E02013607B6D01F076B8D7E90801AA
:102420004FF000024FF00003FFF768F90346002B5E
:1024300011D0D7F8D83001221A60924B7B65D7F8BB
:10244000E030002B04D07B6D5A1CD7F8E0301A60C6
:102450007B6D01F059B8D7E9082307F130010191EC
:1024600007F12C010091F86817F08FFAF8667B6A83
:102470001B0DC3F30A03C7F8A830D7F8A830002B08
:1024800016D0D7E90823C7E90623FB69C3F3130372
:10249000FB61FB6943F07F5343F44013FB61D7F8C2
:1024A000A830A3F2FF33C7F8A83000233B6733E01E
:1024B0003A6BFB6A134403F23243C7F8A830D7F8EB
:1024C000A830202B0DDD7A6AD7F8A830C3F140037D
:1024D0009A40396AD7F8A830203B21FA03F3134316
:1024E00006E03A6AD7F8A830C3F1200302FA03F3F2
:1024F0003B65386DFEF7D6F902460B46C7E9062361
:10250000FB69A3F1F873FB61D7F8A830A3F233435A
:10251000C7F8A83001233B67D7E906014FF0000256
:10252000594BFEF781F802460B46104619464CA35C
:10253000D3E90023FEF730FA02460B46104619464F
:1025400049A3D3E90023FEF771F802460B469046F3
:102550009946D7F8A800FEF7B5F945A3D3E90023BB
:10256000FEF71AFA02460B4640464946FEF75EF869
:1025700002460B46C7E91623D7E91601FFF7C0F953
:102580000346C7F894304FF000024FF00003D7E93C
:102590001601FFF7BDF80346002B11D0D7F89400C1
:1025A000FEF790F902460B46D7E91601FFF7A6F8A9
:1025B0000346002B04D1D7F89430013BC7F8943080
:1025C0000123C7F89030D7F89430002B19DBD7F8E7
:1025D0009430162B15DCD7E908012C4AD7F8943033
:1025E000DB001344D3E90023FFF792F80346002BE6
:1025F00004D0D7F89430013BC7F894300023C7F8D3
:1026000090303A6BD7F8A830D31A013BC7F898300E
:10261000D7F89830002B07DB0023C7F8B430D7F881
:102620009830C7F8803007E0D7F898305B42C7F899
:10263000B4300023C7F88030D7F89430002B27DB64
:102640000023C7F8B030D7F89430FB67D7F8802064
:10265000D7F894301344C7F8803027E0AFF30080F8
:1026600061436F63A787D23FB3C8608B288AC63F98
:10267000FB799F501344D33F0000F07F70A2010804
:102680007CA2010880A201080000F83FC8B601083A
:10269000D7F8B420D7F89430D31AC7F8B430D7F8A5
:1026A00094305B42C7F8B0300023FB67D7F8D030D6
:1026B000002B03DBD7F8D030092B02DD0023C7F84D
:1026C000D03001237B67D7F8D030052B06DDD7F853
:1026D000D030043BC7F8D03000237B670123C7F814
:1026E0008C304FF0FF33C7F89C30D7F89C30C7F8D8
:1026F000A030D7F8D030052B47D801A252F823F0EC
:10270000192700081927000827270008552700085F
:102710002D2700085B2700081223C7F8A8300023E4
:10272000C7F8D43031E00023C7F88C30D7F8D43064
:10273000002B02DC0123C7F8D430D7F8D430C7F817
:10274000A830D7F8A830C7F89C30D7F89C30C7F825
:10275000A0301AE00023C7F88C30D7F8D420D7F87F
:10276000943013440133C7F8A830D7F8A830C7F81D
:10277000A030D7F8A830013BC7F89C30D7F8A83074
:10278000002B02DC0123C7F8A8300423C7F89830D7
:10279000FB6800225A6409E0FB685B6C5A1CFB680A
:1027A0005A64D7F898305B00C7F89830D7F898305B
:1027B00003F11402D7F8A8309A42EDD9FB685B6C9C
:1027C0001946F86816F005FD0246FB681A64FB68B6
:1027D0001B6CFB64FB6C7B65D7F8A030002BC0F250
:1027E0004C82D7F8A0300E2B00F347827B6F002B72
:1027F00000F043820023C7F8A830D7E90823C7E9CF
:102800000623D7F89430BB64D7F8A0307B6402234A
:10281000C7F8A430D7F89430002B5FDDD7F8943098
:1028200003F00F038A4ADB001344D3E90023C7E90E
:102830001623D7F894301B11C7F89830D7F8983082
:1028400003F01003002B3AD0D7F8983003F00F03B1
:10285000C7F89830D7E908017E4BD3E90823FEF783
:10286000C5F902460B46C7E90823D7F8A43001335F
:10287000C7F8A43023E0D7F8983003F00103002B09
:1028800013D0D7F8A4300133C7F8A430714AD7F871
:10289000A830DB001344D3E90023D7E91601FEF783
:1028A0007BF802460B46C7E91623D7F898305B1031
:1028B000C7F89830D7F8A8300133C7F8A830D7F850
:1028C0009830002BD7D1D7E90801D7E91623FEF7B6
:1028D0008DF902460B46C7E9082343E0D7F8943048
:1028E0005B423B643B6C002B3CD0D7E908013B6C5E
:1028F00003F00F03564ADB001344D3E90023FEF72D
:102900004BF802460B46C7E908233B6C1B11C7F87E
:10291000983023E0D7F8983003F00103002B13D050
:10292000D7F8A4300133C7F8A430D7E90801494AE1
:10293000D7F8A830DB001344D3E90023FEF72CF8C6
:1029400002460B46C7E90823D7F898305B10C7F852
:102950009830D7F8A8300133C7F8A830D7F89830A6
:10296000002BD7D1D7F89030002B2BD0D7E9080116
:102970004FF00002384BFEF7CBFE0346002B21D070
:10298000D7F8A030002B1DDDD7F89C30002B40F38A
:102990006581D7F89C30C7F8A030D7F89430013B58
:1029A000C7F89430D7E908014FF000022B4BFDF730
:1029B000F3FF02460B46C7E90823D7F8A4300133DA
:1029C000C7F8A430D7F8A400FDF77CFFD7E90823A7
:1029D000FDF7E2FF02460B46104619464FF0000293
:1029E0001F4BFDF723FE02460B46C7E904237B6914
:1029F000A3F150737B61D7F8A030002B34D10023B2
:102A00007B667B6E3B66D7E908014FF00002154BF1
:102A1000FDF70AFE02460B46C7E90823D7E908017D
:102A2000D7E90423FEF792FE0346002B40F0C08353
:102A3000D7E90801D7E90423144683F0004522466C
:102A40002B46FEF765FE0346002B40F0A68308E107
:102A5000C8B6010890B701080000F03F000024400C
:102A600000001C4000001440D7F88C30002B7AD0B6
:102A7000D7F8A030013B9C4ADB001344D3E9002384
:102A80004FF000009949FEF7B1F802460B46104698
:102A90001946D7E90423FDF7C7FD02460B46C7E9EF
:102AA00004230023C7F8A830D7E9082310461946A5
:102AB000FEF726FF0346FB63D7E90845F86BFDF7F1
:102AC00001FF02460B4620462946FDF7ADFD0246B2
:102AD0000B46C7E90823FB6BDAB27B6D591C79659D
:102AE0003032D2B21A70D7E90801D7E90423FEF7D1
:102AF0000FFE0346002B40F0EE84D7E908234FF089
:102B000000007B49FDF790FD02460B461046194632
:102B1000D7E90423FEF7FCFD0346002B40F0438178
:102B2000D7F8A8300133C7F8A830D7F8A820D7F8CD
:102B3000A0309A4280F29480D7E904014FF000025D
:102B40006C4BFDF729FF02460B46C7E90423D7E982
:102B500008014FF00002674BFDF71EFF02460B46CF
:102B6000C7E90823A0E7D7E90401D7F8A030013B63
:102B70005D4ADB001344D3E90023FDF70DFF024655
:102B80000B46C7E904230123C7F8A830D7E9082377
:102B900010461946FEF7B4FE0346FB63D7E9084525
:102BA000F86BFDF78FFE02460B4620462946FDF7DF
:102BB0003BFD02460B46C7E90823FB6BDAB27B6D8F
:102BC000591C79653032D2B21A70D7F8A820D7F8DC
:102BD000A0309A4231D1D7E90845D7E904014FF036
:102BE0000002424BFDF722FD02460B4620462946D5
:102BF000FEF7ACFD0346002B40F0D780D7E908452F
:102C0000D7E904234FF000003849FDF70DFD0246D7
:102C10000B4620462946FEF77BFD0346002B00D1DC
:102C20001FE07B6D013B7B657B6D1B78302BF8D003
:102C30007B6D01337B6500F051BCD7F8A8300133C0
:102C4000C7F8A830D7E908014FF00002294BFDF77B
:102C5000A3FE02460B46C7E9082397E700BF00E042
:102C600000BFFB6C7B65D7E90623C7E90823BB6C73
:102C7000C7F894307B6CC7F8A030FB6A002BC0F219
:102C8000D480D7F894300E2B00F3CF80164AD7F8B3
:102C90009430DB001344D3E90023C7E91623D7F8A7
:102CA000D430002B2ADAD7F8A030002B26DC002302
:102CB0007B667B6E3B66D7F8A030002BC0F26F823C
:102CC000D7E908454FF000020B4BD7E91601FDF795
:102CD00063FE02460B4620462946FEF723FD0346C7
:102CE000002B40F05C8266E2C8B601080000E03FBD
:102CF0000000F03F00002440000014400123C7F80A
:102D0000A830D7E90801D7E91623FDF76FFF02467F
:102D10000B4610461946FEF7F3FD0346FB63D7E961
:102D20000845F86BFDF7CEFDD7E91623FDF734FE15
:102D300002460B4620462946FDF776FC02460B4626
:102D4000C7E90823FB6BDAB27B6D591C7965303219
:102D5000D2B21A70D7F8A820D7F8A0309A4244D13E
:102D6000D7E9080102460B46FDF760FC02460B4618
:102D7000C7E90823D7E90823D7E91601FEF7C8FCFD
:102D80000346002B13D1D7E90823D7E91601FEF734
:102D9000B5FC0346002B00D143E0FB6B03F00103BD
:102DA000002B3ED003E000BF10E000BF0EE000BFEC
:102DB0000CE07A6DFB6C9A4208D1D7F8943001335D
:102DC000C7F894307B6D30221A7006E07B6D013BB2
:102DD0007B657B6D1B78392BEBD07B6D5A1C7A653C
:102DE0001A780132D2B21A701BE0D7E908014FF00D
:102DF0000002AD4BFDF7D0FD02460B46C7E90823A4
:102E0000D7E908014FF000024FF00003FEF776FC0F
:102E10000346002B07D1D7F8A8300133C7F8A830F4
:102E20006FE700BF5AE300BF58E3D7F8B430C7F8E4
:102E30008830D7F8B030C7F884300023BB66BB6E4B
:102E40007B66D7F88C30002B5ED0D7F8D030012BC2
:102E50000CDC3B6F002B03D0FB6A03F2334302E030
:102E60003B6BC3F13603C7F8A8303AE0D7F8A0307F
:102E7000013BC7F89830D7F88420D7F898309A42A9
:102E800007DBD7F88420D7F89830D31AC7F88430F6
:102E900015E0D7F89820D7F88430D31AC7F89830BF
:102EA000D7F89830FA6F1344FB67D7F8B020D7F8FB
:102EB00098301344C7F8B0300023C7F88430D7F8EF
:102EC000A030C7F8A830D7F8A830002B09DAD7F817
:102ED0008820D7F8A830D31AC7F888300023C7F85D
:102EE000A830D7F8B420D7F8A8301344C7F8B430C6
:102EF000D7F88020D7F8A8301344C7F880300121D4
:102F0000F86816F0AFFA7866D7F88830002B21DD24
:102F1000D7F88030002B1DDDD7F88020D7F8883017
:102F20009342A8BF1346C7F8A830D7F8B420D7F803
:102F3000A830D31AC7F8B430D7F88820D7F8A8300B
:102F4000D31AC7F88830D7F88020D7F8A830D31A1A
:102F5000C7F88030D7F8B030002B34DDD7F88C308C
:102F6000002B29D0D7F88430002B12DDD7F884202D
:102F7000796EF8680EF070FC7866FA6E796EF86813
:102F800016F085FAB863F96EF86816F071F9BB6B44
:102F9000FB66D7F8B020D7F88430D31AC7F898303A
:102FA000D7F89830002B0ED0D7F89820F96EF86833
:102FB0000EF052FCF86606E0D7F8B020F96EF8681B
:102FC0000EF04AFCF8660121F86816F04BFA3866F4
:102FD000FB6F002B05DDFA6F396EF8680EF03CFCD4
:102FE00038660023BB67D7F8D030012B18DC3B6A6A
:102FF000002B15D17B6AC3F31303002B10D17A6A1F
:103000002A4B1340002B0BD0D7F8B4300133C7F84C
:10301000B430D7F880300133C7F880300123BB6764
:10302000FB6F002B0ED03B6E1B69013B3A6E0433E5
:103030009B0013445B68184616F0A2F90346C3F1DF
:10304000200300E00123D7F88020134403F01F037E
:10305000C7F8A830D7F8A830002B05D0D7F8A8308B
:10306000C3F12003C7F8A830D7F8A830042B1FDD20
:10307000D7F8A830043BC7F8A830D7F8B420D7F861
:10308000A8301344C7F8B430D7F88820D7F8A83050
:103090001344C7F88830D7F88020D7F8A8301344F5
:1030A000C7F8803022E000BF000024400000F07F1D
:1030B000D7F8A830032B19DCD7F8A8301C33C7F891
:1030C000A830D7F8B420D7F8A8301344C7F8B430E4
:1030D000D7F88820D7F8A8301344C7F88830D7F835
:1030E0008020D7F8A8301344C7F88030D7F8B43020
:1030F000002B06DDD7F8B420F96EF86816F0C4FA94
:10310000F866D7F88030002B06DDD7F88020396EBE
:10311000F86816F0B9FA3866D7F89030002B21D04D
:10312000396EF86E16F038FB0346002B1ADAD7F822
:103130009430013BC7F8943000230A22F96EF868F6
:1031400016F0B4F8F866D7F88C30002B06D00023C0
:103150000A22796EF86816F0A9F87866D7F89C30DC
:10316000C7F8A030D7F8A030002B2FDCD7F8D0302C
:10317000022B2BDDD7F8A030002B12DB0023052219
:10318000396EF86816F092F83866396EF86E16F0F7
:1031900003FB0346002B0DDC03E000BF02E000BF91
:1031A00000E000BFD7F8D430DB43C7F894307BE1B0
:1031B00000BF00E000BF7B6D5A1C7A6531221A7097
:1031C000D7F894300133C7F894306DE1D7F88C30DC
:1031D000002B00F0FD80D7F88830002B06DDD7F8F3
:1031E0008820796EF86816F04FFA78667B6EBB66B9
:1031F000BB6F002B19D07B6E5B681946F86815F021
:10320000E8FF78667B6E03F10C00BB6E03F10C01E6
:10321000BB6E1B6902339B001A46FEF7C1FA0122FE
:10322000796EF86816F030FA78660123C7F8A8308E
:10323000396EF86E15F010FD03463033C7F8AC3028
:10324000B96EF86E16F0A8FAC7F898007A6E396E63
:10325000F86816F0E8FA78637B6BDB68002B05D121
:10326000796BF86E16F098FA034600E001233B6490
:10327000796BF86815F0FCFF3B6C002B1DD1D7F87B
:10328000D030002B19D13B6A03F00103002B14D17D
:10329000D7F8AC30392B52D0D7F89830002B04DD5A
:1032A000D7F8AC300133C7F8AC307B6D5A1C7A6567
:1032B000D7F8AC20D2B21A70F6E0D7F89830002BCD
:1032C0000CDBD7F89830002B31D1D7F8D030002B59
:1032D0002DD13B6A03F00103002B28D13B6C002B5E
:1032E0001DDD0122F96EF86816F0CEF9F866396E28
:1032F000F86E16F051FA38643B6C002B08DC3B6C1E
:10330000002B0CD1D7F8AC3003F00103002B06D012
:10331000D7F8AC305A1CC7F8AC20392B11D07B6DD4
:103320005A1C7A65D7F8AC20D2B21A70BCE03B6C5C
:10333000002B17DDD7F8AC30392B09D102E000BFE4
:1033400000E000BF7B6D5A1C7A6539221A7082E05A
:10335000D7F8AC30DAB27B6D591C79650132D2B244
:103360001A70A1E07B6D5A1C7A65D7F8AC20D2B2F6
:103370001A70D7F8A820D7F8A0309A424DD0002371
:103380000A22F96EF86815F091FFF866BA6E7B6E46
:103390009A4209D100230A22796EF86815F086FF57
:1033A00078667B6EBB660DE000230A22B96EF86872
:1033B00015F07CFFB86600230A22796EF86815F0D4
:1033C00075FF7866D7F8A8300133C7F8A8302FE723
:1033D0000123C7F8A830396EF86E15F03DFC03469E
:1033E0003033C7F8AC307B6D5A1C7A65D7F8AC2007
:1033F000D2B21A70D7F8A820D7F8A0309A420EDAC5
:1034000000230A22F96EF86815F050FFF866D7F825
:10341000A8300133C7F8A830DDE700BF00E000BFE7
:103420000122F96EF86816F02FF9F866396EF86E19
:1034300016F0B2F9C7F89800D7F89830002B09DCDD
:10344000D7F89830002B25D1D7F8AC3003F0010322
:10345000002B1FD000BF0EE07A6DFB6C9A420AD1A0
:10346000D7F894300133C7F894307B6D5A1C7A65D5
:1034700031221A7018E07B6D013B7B657B6D1B78F8
:10348000392BE9D07B6D5A1C7A651A780132D2B299
:103490001A7009E07B6D013B7B657B6D1B78302BDF
:1034A000F8D07B6D01337B65396EF86815F0E0FE6E
:1034B0007B6E002B11D0BB6E002B07D0BA6E7B6EDB
:1034C0009A4203D0B96EF86815F0D2FE796EF868AA
:1034D00015F0CEFE02E000BF00E000BFF96EF86814
:1034E00015F0C6FE7B6D00221A70D7F894305A1C76
:1034F000D7F8D8301A60D7F8E030002B03D0D7F8CF
:10350000E0307A6D1A60FB6C1846B837BD46BDE8EE
:10351000B08300BF094B816810B504469868FCF77A
:10352000C3FE50B1A168064808F0AAFC2146054830
:10353000BDE8104000220FF0A3BB10BD443E0020A8
:10354000F6BE0108643E0020094B816810B50446B0
:103550009868FCF7A9FE48B9064BA1681A680648A6
:103560000132BDE810401A6008F08ABC10BD00BFEF
:10357000443E0020603E00201DBF01081FB510B36F
:1035800008F0B0FC114B124C1860124B12491B682A
:103590000246A06809F056F9A068FCF711FEE06049
:1035A00001206946FEF7A4FA009B2360029B63603A
:1035B0000A4B0B48002221461A600FF061FBA168FC
:1035C000084808F05DFC04B010BD00BF6C3E002050
:1035D000443E0020183E002033BF0108603E00201A
:1035E000583E002039BF01080F2808B506D90EF053
:1035F00074FF092303604FF0FF3008BD064BBFF393
:103600005B8F0C2202FB00308368BFF35B8F002BC3
:10361000EDD00020F1E700BF9002002030B5134A42
:103620000C2303FB002301460833BFF35B8F1868AC
:10363000BFF35B8FC0B1BFF35B8F441E53E8005FE5
:10364000854204D143E8004CBCF1000FF6D1BFF332
:103650005B8FEAD1012801BF0C234B430020D11816
:1036600006BFD0504860204630BD00BF9002002009
:103670002DE9F04106460C461546FFF7B5FF002838
:103680000CDB084F0C2303FB06F03B182A465B6853
:1036900038581B682146BDE8F04118474FF0FF300D
:1036A000BDE8F081900200202DE9F04106460C466D
:1036B0001546FFF799FF00280CDB084F0C2303FB8E
:1036C00006F03B182A465B6838585B682146BDE81F
:1036D000F04118474FF0FF30BDE8F0819002002024
:1036E00038B50546FFF780FF00280DDB084A0C239C
:1036F0006B43D118D05849688968884704462846E2
:10370000FFF78CFF204638BD4FF0FF34FAE700BFCB
:1037100090020020F7B507460D461646FFF764FFF6
:1037200000280EDB084900960C2404FB07F00C1857
:103730002B460958606840F201120EF073FC03B08A
:10374000F0BD4FF0FF30FAE7900200204FF010027A
:10375000EFF3118382F31188BFF36F8F83F3118826
:10376000BFF36F8F024B034A1A600020704700BFFF
:10377000880300200024F40038B5044C044DAC420A
:1037800000D338BD54F8043B9847F8E7E4A001089B
:10379000E4A0010838B5054C256804EB850405B99B
:1037A00038BD54F80439013D9847F8E7DCA001081A
:1037B00008B5024801F08CF9002008BDA0BF01083F
:1037C0002DE9F8430D4F04460E4615464FF001080B
:1037D00002F10409B44201DBBDE8F8837A6908FA12
:1037E00004F333EA020207D17B6155F834301BB190
:1037F00059F83410204698470134EBE7003C01406B
:10380000044A0123116883400B431360024B18568E
:1038100000F0E6BA003C0140B2BF01081F2807DCF7
:10382000044901220B6802FA00F023EA0000086054
:10383000704700BF003C014003290FD8DFE801F0CA
:10384000020F1723154B0122996802FA00F021EAB2
:1038500000019960DA6822EA0000D860704701230D
:1038600003FA00F00D4B9A6802439A60F2E70123D5
:1038700003FA00F0094BDA680243DA609A6822EA38
:10388000000098607047012303FA00F0034B9A6828
:1038900002439A60DA681043DFE700BF003C014052
:1038A000074B10B5044653F8300028B943F83410DC
:1038B00003EBC4035A6010BD6FF00F00FBE700BFBD
:1038C000703E0020034B002243F8302003EBC0037E
:1038D0005A607047703E00200B6886B0062B39D8BE
:1038E000DFE803F00410242E38381A001B4A4B6816
:1038F000116B19431163126B13400193019B00205C
:1039000006B07047154A4B68516B19435163526BAF
:1039100013400293029BF2E7104A4B68916B1943E4
:103920009163926B13400393039BE8E70B4A4B6848
:10393000116C19431164126C13400493049BDEE76D
:10394000064A4B68516C19435164526C13400593FD
:10395000059BD4E76FF08500D2E700BF0038024036
:10396000094B09681B6806290BD8DFE801F005053B
:1039700004080A0A05009B081360002070475B08D2
:10398000FAE76FF0850070478803002030B500210A
:1039900087B04FF4A053CDE900134FF400430293D6
:1039A00000F070F803A80EF06DFD184B1A68900730
:1039B00006D41A6842F001021A601A689207FCD510
:1039C000124CA36823F00303A360A36823F0F00361
:1039D000A360A56815F00C05FBD123680C4823F003
:1039E00080732360636823F0706343F0E063636077
:1039F00003AA6B46294600F0E1FF236823F0010388
:103A000023600EF047FD284607B030BD0038024065
:103A100000127A000B6882B0062B2DD8DFE803F085
:103A2000040D1E252C2C1400154A4968136B23EA3B
:103A300001031363002002B07047114A4968536BB9
:103A400023EA01035363F5E70D4A4B68916B194371
:103A50009163926B13400193019BEBE7084A49681D
:103A6000136C23EA01031364E4E7054A4968536CC5
:103A700023EA01035364DDE76FF08500DBE700BF55
:103A800000380240064B1A6C42F080521A641B6CDC
:103A900082B003F080530193019B02B0704700BFD6
:103AA0000038024013B50446084611B9094801F030
:103AB0000FF800230093084B53F82430019301338F
:103AC00005D0836869461B68984702B010BD6FF047
:103AD0000400FAE7C9BF0108C8B701082DE9F74F8C
:103AE00007460E4641B3194800F0F2FF0025804614
:103AF000AB4607F1040A57F8354014F0F00FE3B273
:103B00001ED15AF8352042F0200BC4F30729C4F324
:103B1000033441462046A4020193FFF7C3FF04F19A
:103B20008040019B5A4609F00F0100F50030013535
:103B30000EF04FFDAE42DED1002003B0BDE8F08FA5
:103B4000102B08BF4FF0300BDFE700BFC9BF0108E3
:103B50000B4B9A68196898680A4B11F4803F10B5AE
:103B6000094901D1824205D21A680C6822441A60C0
:103B7000034A12681B680A681344181A10BD00BF74
:103B800010E000E0343F0020303F002008B5FFF790
:103B9000DFFF0C4B0C4A18681168084410600022C3
:103BA0001A600A4A116844F2A013401AB0FBF3F0FD
:103BB00003FB0013136001F0D7FDBDE8084000F0DF
:103BC000E1BA00BF343F00202C3F0020283F0020F6
:103BD000094B102283F82320084B44F29F121A60ED
:103BE000074B00201860074B5A6098601A6842F033
:103BF00007021A60704700BF00ED00E0303F002070
:103C0000343F002010E000E070B52B4D51B1431C53
:103C10000ED12A4A136823F0010313604FF07F434B
:103C20002B6070BD40F2E533B0F1FF3F08BF18468E
:103C3000441E002C27DD40F2E5339C42A8BF1C4601
:103C40004FF01003EFF3118683F31188BFF36F8FEA
:103C5000FFF77EFF1A4B1A6810441860194B0022B8
:103C60001A60194B1B68C11A0FD540F21A432B601A
:103C70002B68124A013B53600023936086F311883E
:103C8000BFF36F8FCDE70024DAE744F2A01202FB06
:103C90000414181A04F583441F3440F21A43B4FB89
:103CA000F2F402FB0400984204D9084B9842DED893
:103CB0002860DDE71846FBE7303F002010E000E019
:103CC0002C3F0020343F0020283F00202094FF009C
:103CD00010B54FF01003EFF3118483F31188BFF395
:103CE0006F8FFFF735FF074B074A1B6812689B1A57
:103CF000034484F31188BFF36F8F44F2A010B3FB29
:103D0000F0F010BD2C3F0020283F002010B54FF0F0
:103D10001003EFF3118483F31188BFF36F8FFFF764
:103D200017FF044B1B68184484F31188BFF36F8F8F
:103D300010BD00BF2C3F0020094A0A49936809685A
:103D4000D967094998674B6843F080534B6000235B
:103D500083F31188BFF36F8F9368D86F704700BFEC
:103D6000F83F0020E8B9010800ED00E012498A6838
:103D70004FF038001044EFF3098C80E8F01F10205A
:103D800080F31188BFF36F8F0C4F4FF000664A6AC3
:103D90008A603E60906F0023936780F3118804B5BA
:103DA000104600F037FABDE8044002F1380090E810
:103DB000F01F8CF309887047F83F002004ED00E005
:103DC0001EF0040F0CBFEFF30880EFF30980816948
:103DD00011F8021C0229FFD001B50EF062FB01BDF3
:103DE00043B2002B08DB012200F01F0002FA00F0B2
:103DF0005B09024A42F82300704700BF00E100E07F
:103E000043B2002BA8BF03F1604301F10101B8BF29
:103E1000064B4FEA0111ACBF03F5614300F00F0000
:103E2000C9B2B4BF195483F80013704714ED00E011
:103E300042F8203C009B42F81C3C0A49019B42F896
:103E4000183C029B42F8143C21F001014FF08073B2
:103E500042F8043C42F8081C0023203A826583673C
:103E6000704700BF6B2001080B4A0346906890B171
:103E700013F1160F806E05D0A0F120029A4206D8E9
:103E8000834204D281422CBF0021012100E00021A5
:103E9000002908BF00207047F83F002008B50446FD
:103EA0000E46154600F0AAF9084B20469C6000F02B
:103EB000B1F9284686F30988002163B681F3118899
:103EC000BFF36F8F002200230EF0CFF8F83F0020E1
:103ED000014910220A60704710ED00E072B64040C0
:103EE00080F31188BFF36F8FBFF34F8F30BF62B67F
:103EF000BFF36F8F704700BF30BFFFF7FDBF00BF3C
:103F00000E4A08B50E4B22F07F029A60BFF34F8F26
:103F1000BFF36F8FD3F8882022F47002C3F8882093
:103F2000EFF3148323F0040383F3148800F0FEFD01
:103F300001F016FB00F034F900F02EFE000000083E
:103F400000ED00E001B5EFF30580A0F110004FEAAD
:103F5000C0000449014409C99847BDE8014002492D
:103F600008470000049E010885410008102080F3E6
:103F7000118808484FF40261401880F30988EFF374
:103F800014800221084380F31488BFF36F8FFFF77A
:103F9000B7FF0000E0BC0020EFF30880EFF30981D9
:103FA00001B5724600F068F801BD00BF38B5194B85
:103FB00014469A6A9A6A9A6A0546900719D5586B08
:103FC0009A6A120615D519B19A6A22F080029A628D
:103FD0009A6A9A6A9A6AD1060ED49B6A9A070BD497
:103FE00000200C4A936A43F0FF039362002323707E
:103FF00038BD6FF01500EBE7064B5B681B05EFD58E
:104000002946FFF731FF0028EAD080F30988022013
:10401000E7E700BF00ED00E00D4B9A6A9A6A9A6AE2
:10402000920507D59A6A120404D518B19A6A22F447
:1040300000429A62064B9A6A9A6AD20558BF9A6AF7
:104040009A6A002042F47F429A620870704700BF6B
:1040500000ED00E0074B9A6A9A6A9A6A9A6A9A6A2D
:104060009A6A9A6A6FEA02426FEA12429A620020E2
:10407000704700BF00ED00E0F0B53A4B5B688BB0D5
:104080000C46C3F30803002585F31188BFF36F8F37
:1040900002F07F41B1F17F4F11D102F00C010829EC
:1040A0000DD0110701D4044601250022033B8DF8F1
:1040B0000720032B4ED8DFE803F0044549422C4685
:1040C000F3E7284BDA6A920744D4DB6A13F08043A3
:1040D00009D0254B1B7823B30DF10702012120469F
:1040E000FFF764FF03469DF80720C2B902AE04F152
:1040F000200720686168324603C20834BC42164675
:10410000F7D1099A45B3C2F3080121B96FEA5222E7
:104110006FEA4222099202A918460EF0C0F90BB0CC
:10412000F0BD124B1B782BB10DF107010120FFF7F9
:1041300073FFD7E70E4B188883B2002BD3D0FFF75D
:1041400089FFCFE70DF107020021C8E70DF1070154
:104150000020ECE70023C6E722F4FF7222F0010200
:10416000D8E700BF00ED00E028ED00E029ED00E019
:104170002AED00E0024A536943F01003536170478F
:1041800000ED00E0044B9968586A884203D0034967
:104190004FF080520A607047F83F002004ED00E0C5
:1041A000044800231021C21801335B2B82F800134E
:1041B000F9D1704700E100E008B50E4B9B688342DF
:1041C00007D1EFF3058393B10B4A536843F0805353
:1041D000536000F041FF4FF01003EFF3118083F3C1
:1041E0001188BFF36F8FBDE808400EF005BC01F0E9
:1041F000A3F900BFF83F002000ED00E0024B034AA6
:104200000348012100F096B80000032000000020C0
:10421000F4B70108826E054B203A1A60044A202147
:10422000C3E901121846012100F08EB8383F002082
:1042300000000B15F0B51E4F00268E4201DB104624
:10424000F0BD446884B353B104F1FF3C14EA0C0F91
:1042500018D11F2C16D905681CEA050F12D1202C85
:104260000568D0F808C0D2B20FD9B4F1004F0ED80B
:10427000013CB4FA84F4C4F11F046400072A4CEA38
:10428000040406D96FF01502D9E70824F6E73E24A6
:10429000F4E725F01F05154345F0100544F001042F
:1042A000BA60FD6001323C6101360C30C5E700BFE9
:1042B00090ED00E0034B05225A60BFF34F8FBFF330
:1042C0006F8F704790ED00E0BFF35F8F014B0022CE
:1042D0005A60704790ED00E013490868082810B54F
:1042E0001ED8FFF7F1FF114C49680022904201F1FE
:1042F0000C0105D10E4B1870FFF7DCFF002010BD3C
:10430000A26051F80C3C23F01F03134343F0100349
:10431000E36051F8043C43F0010323610132E5E717
:104320004FF0FF30EBE700BF00B8010890ED00E070
:104330001442002010B5034C01232278FFF77AFFC6
:10434000207010BD1442002008B5084A00231278DE
:10435000FFF770FF10F1160F03D0054B002207285E
:1043600000DD08BD98601A610130F8E714420020B2
:1043700090ED00E0F8B50A4F0D46461EC0F101046D
:10438000A3199D4201DC2846F8BD73780A2B02D19F
:104390003B680D2098473B6816F8010F9847EFE7F8
:1043A0006403002008B5034905220120FFF77CF9CA
:1043B000FEE700BFE1BF010810B54FF0FF32044631
:1043C0004FF0FF330A480DF041FE0A490B68E01830
:1043D000094CC4F1005202F5403290423ABFE41851
:1043E00008604FF0FF3402480DF02BFE204610BD50
:1043F000AC0E0020443F002000C5002008B5054950
:104400001D220220FFF750F9404080F311884FF041
:10441000030002DFE7BF01082DE9F3410C46114616
:10442000B1F5005F4768C2681E4623D104F003035C
:1044300004339A000F23934043EA9403DAB23649D7
:10444000023251F82220190C02EA134391FAA1F228
:10445000B2FA82F2D340BA689A4209D12046FFF7F5
:10446000DDF92046FFF72EFA00212046FFF7E4F998
:10447000002543E0B1F5804F48D028492046FFF79A
:104480000FFA0546002844D1BF68254800F020FBFC
:104490002449034603C96A4682E80300996818461E
:1044A000D1F800801146C04704F0030104318B00AD
:1044B0000F21994041EA9401CAB2920002F1804270
:1044C00002F59C320B0C906893FAA3F3B3FA83F3D2
:1044D00020EA11419F400F43B6F5802F976011D01D
:1044E000B6F5C02F10D0B6F5003F14BF0021022151
:1044F0002046FFF7A1F92046FFF782F9284602B0CF
:10450000BDE8F0810121F3E70321F1E76FF08505B4
:10451000F4E76FF00F05F1E70038014005250108C9
:10452000C9BF010818A10108C36810B544685860E4
:10453000064800F0CDFA836804F10C011B68984727
:10454000002818BF6FF0040010BD00BFC9BF0108EC
:1045500043681B685A6942F001025A61134A934248
:104560001BD0A2F54C42934217D002F580629342D1
:1045700013D002F5806293420FD002F5806293421D
:104580000BD002F54442934207D0A2F51C4293425D
:1045900003D002F58062934203D11A6942F04002CF
:1045A0001A61DA6842F48072DA60704700100140E4
:1045B00043681B685A6922F001025A61134A934208
:1045C0001BD0A2F54C42934217D002F58062934271
:1045D00013D002F5806293420FD002F580629342BD
:1045E0000BD002F54442934207D0A2F51C429342FD
:1045F00003D002F58062934203D11A6922F040028F
:104600001A61DA6822F48072DA60704700100140A3
:104610002DE9F041D0F80480C7684446064654F8B6
:104620000C5B294800F054FA8368786021461B68C7
:1046300098470446002843D17368D8E907011A68EF
:10464000FFF74CFA00282FDBEB6823F40053EB60F4
:10465000EB6843F00C03EB60D8F81830022B25D040
:10466000012B28D023462046EA68034322F4B052A7
:104670001343EB602B6923F440532B6198F81430FB
:104680002BB173681A68536943F4407353613968F6
:1046900030460EF062F9EB6843F40053EB603046AD
:1046A000D8F8083098470020BDE8F0814FF48053D7
:1046B0004FF48060D8E74FF480534FF4C060D3E7E5
:1046C0006FF00400F0E700BFC9BF01082DE9F8430F
:1046D0000A794368C6681C68012A0D4675D0022A0B
:1046E0000CBF4FF48061002195F8058095F8069085
:1046F000EF79B8F1020F96BF374B4FF4005E33F8F5
:1047000018E0B9F1040F0CBF4FF480530023033AB3
:10471000012F14BF4FF0000C4FF4407C012A57D9F1
:1047200018F0FD0F54D0B9F1020F51D987B12B4ABF
:1047300094420BD0A2F54C42944207D002F580621D
:10474000944203D002F54C42944241D1012F3FD113
:10475000E26822F40052E260E26802F4C0628A4237
:104760001FBFE76827F4C0670F43E760226902F4C0
:10477000405296451FBF216921F4405141EA0E0184
:104780002161E268296802F4805293421FBFE26807
:1047900022F480521A43E260636903F440739C453B
:1047A0001FBF636923F4407343EA0C0363613368FA
:1047B000994203D00EF0D1F82B683360E36843F4DC
:1047C0000053E3600020BDE8F8834FF4C0618BE73D
:1047D0006FF08500F7E700BFF0BC01080010014052
:1047E000084B19681A681B6801F0007102F000524A
:1047F0000A4314BF0120002013F0006F18BF0120EE
:10480000704700BF00380240002848D03F4B1B686B
:1048100003F44043B3F5404F0FD103F10F6303F5A9
:104820008C5398423A4A3CD83A4B984201D90423D7
:1048300038E0904265D9032339E000233DE00223AC
:104840003BE0354A904209D9314A002B08BF042386
:10485000904242D8314A90423FD903E02F4A9042D9
:104860003BD91BB1012B38BF012339E0022337E0CC
:104870002A4A904203D9002B3FD1022302E0284A62
:1048800090423AD827490A6822F00F021A430A6078
:10489000086800F00F00C01A18BF012070470120FF
:1048A00070470523904202D81C4A904202D81C4A05
:1048B000904202D9012B38BF0123144A126802F436
:1048C0004042B2F5004F0BD102F10F6202F5A34254
:1048D0009042B6D9002B08BF0523114A9042C1D897
:1048E0000A4A126802F44042B2F5804FCAD1084A1F
:1048F0009042BDD9002B08BF0323012B38BF0123F1
:10490000C0E7064B98429AD80023D0E700700040D9
:10491000804A5D05000E2707001BB7000087930340
:1049200080C3C901003C02400B68214AC3F3031352
:1049300070B5D35C1F4E20FA03F43368A3420D46D2
:1049400027D31D4B1A6842F080721A601A689201D0
:10495000FCD59A68296822F0F0020A439A609A68A6
:1049600022F0030242F002029A60134B9A6802F0AE
:104970000C02082AFAD19A68696822F4E0520A43C4
:104980009A609A68A96822F460420A439A600020FB
:1049900004E02046FFF738FF0028D2D03368A34256
:1049A00002D92046FFF730FF00B9346070BD00BF68
:1049B0005DC0010888030020003802402DE9F04165
:1049C00004460E4690461D46FFF70AFF002839D1DF
:1049D000D8F80010D8F80470D8F8083001F03F007B
:1049E000B4FBF0F4C7F308004443180C0130400056
:1049F000B4FBF0F0154C226892030FD42268012E0C
:104A00000CBF42F4802222F480222260226842F409
:104A1000803222600D4C22689203FCD50B4C0C4A6C
:104A20006668324042EA87120A4342F480026260BA
:104A3000626822F440321A4362602946BDE8F041C0
:104A4000FFF772BF0120BDE8F08100BF00380240CF
:104A50000080BFFFF8B5104B104F53F820500130C5
:104A600053F82060AE4200D8F8BDD5E900342046A6
:104A7000984770B16CB1E41B24116109084A04F035
:104A80001F0452F82100012303FA04F4044342F8FE
:104A900021400835E6E700BFD4B90108A80D002081
:104AA000A80E0020084BC01A0011084B420900F064
:104AB0001F0053F82220012303FA00F010420CBF1C
:104AC00018460020704700BFA80D0020A80E002047
:104AD000114970B5114C05460E468C4204D10F4C5D
:104AE000B4420AD1002414E02046FFF7DBFF10B1E6
:104AF0002368AB420DD01034EFE72046FFF7D2FF1A
:104B000008B91034ECE721682846FBF7CDFB0028F4
:104B1000F7D1204670BD00BFA80E0020A80D0020D0
:104B2000014B986864307047F83F002008B507488B
:104B3000074A0021121A12F09DFE0648064ABDE8F7
:104B40000840121A002112F095BE00BFC00E0020CE
:104B500090590020000000100000001008B50C4B18
:104B6000012202201A70FFF775FF0DF0F1FFFEF72A
:104B700011FEFEF701FE0320FFF76CFF00F090FC32
:104B8000FCF7E6FE034A137B23F00103137308BD11
:104B900015420020500F00202DE98048DFF8F490E6
:104BA000A7B089F30888334D334E6B69DFF8E8A06E
:104BB000324F43F4007300246B61F02385F82230F8
:104BC000EC772C766C76AC766B6A43F4E0236B6200
:104BD000FFF7D0FAFFF77CF94FF0FF33AB62EB62DF
:104BE000274D40F20113ADF8243006ABAB602046F0
:104BF000CDE92044FFF72EFF0120FFF72BFF00F047
:104C00003BFB204B6E624FF0010B059303231E49C3
:104C1000009446F2A812CDE9033BCDE90144534686
:104C2000304600F00BFC737B804623F004033046D3
:104C300073730DF00DFF0F23CDE902431349144B9D
:104C40004FF4A072CDE904B4CDE90054384600F029
:104C5000F5FB7B7BEF6023F004037B7305F11C0302
:104C6000C5E907332C76C5F80490524641463046D4
:104C7000FFF714F900ED00E0500F0020D00E0020E7
:104C8000F83F00206DC00108A059002080BB002023
:104C9000DF2B010800C500205D4B000870B50E4BEE
:104CA0000E4CA34201D3002070BDD3E9030141EAB9
:104CB000000212F003020BD19D685A61AA4201D191
:104CC0001C33EEE75E690E60013259610144F5E77D
:104CD0006FF01500E8E700BFAC0E0020AC0E00201E
:104CE00010B5084C23685BB1FEF7F2FF034620685D
:104CF000054A0344BDE81040536100210DF04FBF49
:104D000010BD00BF30400020F83F002010B54FF02C
:104D10001003EFF3118483F31188BFF36F8F084BF7
:104D200000225A610A235843064B1860064B19604B
:104D3000FFF7D6FF84F31188BFF36F8F10BD00BF5C
:104D4000F83F0020304000202C40002049B9EFF30C
:104D5000058030B9054B5A6A9B689A4201D0FEF72C
:104D6000EBBF81F31188BFF36F8F7047F83F0020CE
:104D70004FF01003EFF3118183F31188BFF36F8FAE
:104D8000044B9A68D37B013BD37381F31188BFF343
:104D90006F8F7047F83F0020094B03F128028242D1
:104DA00005D19B688B4202D14B7BDB0606D1D1E952
:104DB000003213605A600023C1E90033704700BF1E
:104DC000F83F002038B5124C2369A26801460BB1A8
:104DD000E5680CE004F128000DF030FE537B054639
:104DE000980644BF43F008035373002DF0D049B92F
:104DF000537BDB0606D1AB6923B9D3897F2B01D95D
:104E0000626238BD954201D0FFF76AFF6562F8E73C
:104E1000F83F002010B54FF01003EFF3118483F337
:104E20001188BFF36F8F084B9A68D37B0133D3731C
:104E30000020FFF7C7FF84F31188BFF36F8FBDE831
:104E400010400DF0E5BD00BFF83F002070B490F9B0
:104E50000D20437B002A2CDBDB062AD1836943BB70
:104E6000154A114651F8284F8C4218BF2346002B93
:104E7000D46A38BF0023B3B190F90E6093F90E5095
:104E8000AE4203DBA3420ED01B68F4E75A68C0E9C8
:104E9000003210605860437B63F07F03437370BC43
:104EA0000020FFF78FBFC0E90014D36A1860D062FA
:104EB000F1E770BC704700BFF83F002010B54FF01D
:104EC0001002EFF3118482F31188BFF36F8F427BDE
:104ED000510704D484F31188BFF36F8F10BD22F003
:104EE00004024273FFF7B2FF21460248BDE81040BA
:104EF000FFF72CBF1642002070B590F90D30002B43
:104F0000014602DA1748FFF747FF174A1046D46AEE
:104F100050F8283F834208BF0023002B38BF0023EE
:104F2000D3B191F90E6093F90E50AE4203DBA34268
:104F300012D01B68F4E75868C1E90030016059607D
:104F40004B7B906863F07F034B73431A5842BDE874
:104F500070405841FFF736BFC1E90004D36A1960B9
:104F6000D162EDE720400020F83F002070B50146F7
:104F70004FF01003EFF3118483F31188BFF36F8FA9
:104F8000164B174A98681568A8421D4606D1FFF7C8
:104F9000A7FE84F31188BFF36F8F70BD00261660E3
:104FA000104A1268BAB1C2897F2A14D8427BD2064D
:104FB00011D10D4A90F90E60126896420BDB0B4A34
:104FC000904208D05A698A4202DCFFF795FFDEE77B
:104FD000521A5A61DDE700236B61DAE7F83F0020DF
:104FE00028400020304000202C400020D00E00201F
:104FF00070B5044618300DF0ACFD4FF01003EFF320
:10500000118683F31188BFF36F8F94F90D30002B55
:1050100007DA0F482146FFF7BFFE637B03F07F03EB
:1050200063730C4D637BA86843F010036373031B29
:1050300058425841FFF7C6FE86F31188BFF36F8FC1
:10504000AB68A34203D1BDE870400DF0E1BC70BD78
:1050500020400020F83F00202DE9F04104464FF0A9
:105060001003EFF3118283F31188BFF36F8F437B3B
:1050700013F0280F05D082F31188BFF36F8FBDE8BE
:10508000F08143F02003437382F31188BFF36F8FE5
:1050900018300DF05EFD4FF01003EFF3118683F32F
:1050A0001188BFF36F8F637BD80616D1A269A2B9AE
:1050B000190607D526482146FFF76EFE637B03F0ED
:1050C0007F036373234B9868021B50425041FFF7E4
:1050D00079FE04F1300800271DE09B07F9D5A06890
:1050E0002146FFF759FE637B23F00203637300231D
:1050F000A360EEE705F118000DF02BFDA868294626
:10510000FFF74AFE6B7BAF6023F002036B73EF6720
:105110002846FFF79BFE256B454501D0002DE9D1C0
:105120000C4B9A680C4B9A4202D10120FFF74AFEC1
:10513000637B43F008036373236E86F31188BFF328
:105140006F8F002B9BD02046BDE8F041184700BF71
:1051500020400020F83F0020D00E002008B590F934
:105160000D30002B014606DA0748FFF715FE4B7B92
:1051700003F07F034B73054B9868431A584258411C
:10518000BDE80840FFF71EBE20400020F83F002089
:105190002DE9F041064614461D464FF01003EFF38B
:1051A000118783F31188BFF36F8F0DF081FC87F3B4
:1051B0001188BFF36F8F6B1C08BFB4F1FF3F08D09D
:1051C00022462B4606F118000349BDE8F04100F0E5
:1051D0003DBABDE8F08100BF712A010810B5074B48
:1051E0009868074B0C4618601146DDE90223FFF76B
:1051F000CFFF2046BDE81040FEF79EBDF83F0020DF
:10520000284000202DE9F04105460F460DF0E1FC55
:1052100004464FF01003EFF3118883F31188BFF3B6
:105220006F8F124E124BB0681860FFF797FFB0688F
:1052300010492A463B46183000F008FAB268537B02
:1052400043F0100353734046FEF776FD0DF0C1FCAA
:105250002C44241A4FF0000565F10005002C75F16F
:105260000003B8BF00242046BDE8F081F83F0020CD
:1052700028400020712A0108044B002103F1280274
:10528000C3E90A220846FFF741BD00BFF83F0020EE
:10529000F8B5244C244BA2689A4230D04FF010034A
:1052A000EFF3118583F31188BFF36F8FA16804F1C9
:1052B0002800FFF771FDA36AA268E16A834208BF74
:1052C0000023002B38BF00232BB392F90E7093F903
:1052D0000E60B74203DB8B421DD01B68F4E75968B0
:1052E000C2E900310A605A60537B63F07F03537355
:1052F0000120FFF767FD85F31188BFF36F8F4FF033
:105300001003EFF3118083F31188BFF36F8FBDE8B3
:10531000F840FEF711BDC2E90001E36A1A60E262DB
:10532000E2E700BFF83F0020D00E0020B1F1FF3FC0
:1053300008BFB0F1FF3F08B502460B4606D10A4B45
:105340009868FFF755FE4FF0FF3008BD134308D1B2
:10535000FFF79EFF00200A220023C117FBF7DCFFA6
:10536000F3E7FFF74FFFF6E7F83F0020014B98689F
:10537000704700BFF83F002038B504464FF01003D7
:10538000EFF3118583F31188BFF36F8F0DF0BBFB33
:1053900048B10022C2670DF05BFB29460548BDE815
:1053A0003840FFF7D3BCD4E902329A4218BF013328
:1053B000A360F2E71742002037B514461D464FF0B0
:1053C0001003EFF3118183F31188BFF36F8F8368AC
:1053D00043B1013B836081F31188BFF36F8F0020DD
:1053E00003B030BD54EA050306D181F31188BFF341
:1053F0006F8F6FF00F00F3E70246CDE900450248DA
:10540000FFF7ECFEECE700BF1742002038B504467A
:1054100078B1FEF77BFC05460648074AA4FB00016D
:105420000023FBF779FF0446FEF770FC431BA34201
:10543000FAD338BD007A030A40420F002DE9FF413C
:1054400000F13005C0E90C550E9D05730425457328
:105450000F460D9D8573D61D00250C9AC57326F049
:1054600007062037C0E90655C0E91A76056706F138
:10547000200802920B9A019288440A9A00924246AE
:105480000446FEF7D5FC054B9B68C4E9175503B1EC
:105490005B6F6367404604B0BDE8F081F83F0020D1
:1054A000F0B5224F224D87B03E46BD4205F1300493
:1054B0000BD3FFF75DFC1E4C1E4F0A25B44221D3CF
:1054C00007B0BDE8F040FFF7A5BC54F8043C0593D5
:1054D00054F8103C049354F8143C039354F8183CCB
:1054E000029354F81C3C019354F8203C009354E977
:1054F0000A2354E90C01FFF7A1FF54F8303CDD65A5
:105500002546D2E7626A531C09D022EAE27282FB86
:10551000052352EA0301206803D1FFF7CFFC3034A2
:10552000CCE73946183000F091F8F8E7AC0E0020CF
:10553000AC0E0020712A010808B54FF01003EFF3FC
:10554000118483F31188BFF36F8F044B986818613F
:10555000FFF74EFD2046FEF7EFFB00BFF83F0020AF
:1055600009480A4A0A4908B5121AFCF719F9094A02
:1055700009490A48FCF714F909480A4A0A49BDE8EA
:105580000840121AFCF70CB900000020BC0E0020E5
:1055900024E601080000000024E6010800000020C5
:1055A0000000001000000010E0F40108034B1B682D
:1055B0000BB9FEF78DBB0020704700BF34400020C0
:1055C00030B5036868B10A4A5268904209D043B1C5
:1055D000D3E90421D0E90445121945EB0101C3E9DF
:1055E0000421426813605A600023C0E9003330BDD3
:1055F0008C03002038B5134B1C689C4208BF002464
:10560000FFF7D4FF0546BCB1D4E90401401B61EBB0
:10561000E571012871F1000311DB6FF000420023F6
:10562000824273EB010400DA1046074B5B6913B149
:105630009842A8BF184638BD6FF00040F5E700203B
:10564000F3E700BF8C030020F83F00202DE9F74F5F
:10565000019119464B1C08BFB2F1FF3F824670D042
:10566000541C6FF0010341F100054FF0FF3BB3EB19
:1056700004086BEB0509B8F1000F79F100030FDBAB
:10568000FFF794FF354AD2E9001C6FF001035B1A63
:105690006BEB0C021E1B62EB0507341A67EBE0751F
:1056A000019BCAF808304FF01003EFF3118683F323
:1056B0001188BFF36F8FFFF779FF012C75F100039D
:1056C000274BB8BF01241A68B8BF0025241845EB42
:1056D000E0759A42CAE9044501D05F6852B95A6838
:1056E000CAF804205A68CAF80030C2F800A0C3F80B
:1056F00004A014E0D2E90489DAE90445444575EBD5
:10570000090121DAB8EB040069EB0501C2E90401E3
:105710005168CAE90021C1F800A0C2F804A01A68C3
:105720009A420AD0924508D1FFF764FF0D4B5B699E
:10573000834202D00021FEF767FA86F31188BFF397
:105740006F8F03B0BDE8F08FB4EB080065EB090183
:10575000BA42CAE90401C2D01268BFE7D00F0020E4
:105760008C030020F83F00202DE9F74F0646FFF795
:10577000FDFB4FF01003EFF3118483F31188BFF3A7
:105780006F8F2C4DDFF8B0A0DFF8B0B02E6051461F
:10579000D5F800C0DBF800006246D3175845DAE9B7
:1057A0000089CDE900230DD060B1D0E90467B4458C
:1057B000BB411EDA009BB6EB030C019B67EB0306B3
:1057C000C0E904C6009B13EB0802019B4FF00006E2
:1057D00043EB0903C1E900232E60FFF70BFF3146BD
:1057E000FEF712FA84F31188BFF36F8F03B0BDE8A0
:1057F000F08F18EB06084FF000024FF0000349EB62
:10580000E679C0E90423ACEB0606CAE900892E60FC
:10581000FFF7D6FE84F31188BFF36F8F8368984734
:105820004FF01003EFF3118483F31188BFF36F8FF0
:105830000149ADE734400020D00F00208C03002048
:1058400010B54FF01003EFF3118483F31188BFF309
:105850006F8FFEF73DFA064BD3E90023121843F190
:10586000000384F31188BFF36F8F1046194610BDF3
:10587000D00F002038B5064C064DAC4201D30020B5
:1058800038BDD4E9011220460DF0D3F91834F4E7FD
:10589000AC0E0020AC0E0020014B1868704700BF12
:1058A000ECB901082DE9F04FADF2444D0546DDF8A5
:1058B0006844079288469A462CB90B2630460DF26A
:1058C000444DBDE8F08F04F1500630460DF04BFA20
:1058D0000028F2D0002DF0D02F68002F40F02F814B
:1058E00040460FF0BFFC002800F02B81079B002BE7
:1058F000E3D0BAF1000FE0D0934B1B7823B90DF041
:105900008DFA08B101F030FB90480A2101F072FDD8
:1059100038B18F4B8D4A8F48CDF800A00A2101F095
:1059200093FDB646BEE80F000DF12C09CC46ACE85D
:105930000F00DEF80030CCF8003001F067FF0DAB4F
:10594000099093E807008DE80700002199E80C0012
:1059500009A80DF06FFB20B10A280CBF0A2601260A
:10596000ACE709A80FF0FAFB834600B309A80DF0D5
:10597000B2FB0446C0B1744B1B7823B90DF04EFA4C
:1059800008B101F0F1FA7148282101F033FD58B156
:1059900010AD284601F0C4FACDE900456E4B6B4AC4
:1059A0006E48282101F050FDBBF10A0FD5E70A909F
:1059B00040460FF062FC834640460FF067FC0DF155
:1059C0002809CDF8149086460FCEEC46ACE80F00BF
:1059D0003368CCF80030724609AB5946504602F0A5
:1059E000C1FD064609A80DF076FB28B936B1672E31
:1059F0007DD0692E00F09F80012678E0524B1A7806
:105A00009A4622B90DF00AFA08B101F0ADFA4F48F2
:105A10000A2101F0EFFC40B1D9F8003000934B4A65
:105A20004F4B50480A2101F00FFD40460FF037FC64
:105A30000028E1D0D9F80000266DFAF7C1FB216EED
:105A40000130B047D9F8006007463046FAF7B8FB96
:105A50003146421C3846FBF7A3FE002210A9384607
:105A60000DF076FB0028C7D1109B002B63D1236D6E
:105A7000216EC0209847286000285ED040460FF075
:105A800015FC04F164032E68079900933A462346F7
:105A900001F082FF2968C6F8BC00D1F8BC000028DC
:105AA00033D068310DF0A6FB064670BB286894F829
:105AB000483080F8B03068222146FBF771FE9AF832
:105AC000003023B90DF0AAF908B101F04DFA1F48D2
